{
  "contractName": "Autorizador",
  "abi": [
    {
      "payable": true,
      "stateMutability": "payable",
      "type": "fallback"
    },
    {
      "constant": false,
      "inputs": [
        {
          "name": "_enderecoContratos",
          "type": "address"
        },
        {
          "name": "_beneficiario",
          "type": "address"
        },
        {
          "name": "_servicos",
          "type": "address"
        },
        {
          "name": "_codigoDoContrato",
          "type": "uint256"
        },
        {
          "name": "_codigoTUSS",
          "type": "string"
        },
        {
          "name": "_quantidade",
          "type": "uint256"
        }
      ],
      "name": "registrarAutorizacao",
      "outputs": [],
      "payable": false,
      "stateMutability": "nonpayable",
      "type": "function"
    },
    {
      "constant": false,
      "inputs": [
        {
          "name": "_contratoPrestadores",
          "type": "address"
        },
        {
          "name": "_servicos",
          "type": "address"
        },
        {
          "name": "_prestador",
          "type": "address"
        },
        {
          "name": "_numeroDaAutorizacao",
          "type": "uint256"
        }
      ],
      "name": "realizarExecucao",
      "outputs": [],
      "payable": false,
      "stateMutability": "nonpayable",
      "type": "function"
    },
    {
      "constant": false,
      "inputs": [
        {
          "name": "_numeroDaAutorizacao",
          "type": "uint256"
        },
        {
          "name": "_prestador",
          "type": "address"
        }
      ],
      "name": "confirmarExecucao",
      "outputs": [],
      "payable": false,
      "stateMutability": "nonpayable",
      "type": "function"
    },
    {
      "constant": true,
      "inputs": [],
      "name": "consultarSaldo",
      "outputs": [
        {
          "name": "saldo",
          "type": "uint256"
        }
      ],
      "payable": false,
      "stateMutability": "view",
      "type": "function"
    }
  ],
  "bytecode": "0x608060405234801561001057600080fd5b5061124c806100206000396000f300608060405260043610610062576000357c0100000000000000000000000000000000000000000000000000000000900463ffffffff168063903bc55b14610064578063952a1664146100f1578063cff7d1e8146101ce578063d6f033fd1461021b575b005b34801561007057600080fd5b506100ef600480360381019080803573ffffffffffffffffffffffffffffffffffffffff169060200190929190803573ffffffffffffffffffffffffffffffffffffffff169060200190929190803573ffffffffffffffffffffffffffffffffffffffff16906020019092919080359060200190929190505050610246565b005b3480156100fd57600080fd5b506101cc600480360381019080803573ffffffffffffffffffffffffffffffffffffffff169060200190929190803573ffffffffffffffffffffffffffffffffffffffff169060200190929190803573ffffffffffffffffffffffffffffffffffffffff16906020019092919080359060200190929190803590602001908201803590602001908080601f01602080910402602001604051908101604052809392919081815260200183838082843782019150505050505091929192908035906020019092919050505061077d565b005b3480156101da57600080fd5b5061021960048036038101908080359060200190929190803573ffffffffffffffffffffffffffffffffffffffff169060200190929190505050610d4f565b005b34801561022757600080fd5b506102306110f7565b6040518082815260200191505060405180910390f35b61024e611116565b600080600080600080549050861115151561026857600080fd5b60006001870381548110151561027a57fe5b906000526020600020906005020160c060405190810160405290816000820160009054906101000a900473ffffffffffffffffffffffffffffffffffffffff1673ffffffffffffffffffffffffffffffffffffffff1673ffffffffffffffffffffffffffffffffffffffff168152602001600182018054600181600116156101000203166002900480601f0160208091040260200160405190810160405280929190818152602001828054600181600116156101000203166002900480156103835780601f1061035857610100808354040283529160200191610383565b820191906000526020600020905b81548152906001019060200180831161036657829003601f168201915b5050505050815260200160028201548152602001600382015481526020016004820160009054906101000a900473ffffffffffffffffffffffffffffffffffffffff1673ffffffffffffffffffffffffffffffffffffffff1673ffffffffffffffffffffffffffffffffffffffff1681526020016004820160149054906101000a900460ff1615151515815250509450600015158560a00151151514151561042a57600080fd5b8793508373ffffffffffffffffffffffffffffffffffffffff16638451869c86602001516040518263ffffffff167c01000000000000000000000000000000000000000000000000000000000281526004018080602001828103825283818151815260200191508051906020019080838360005b838110156104b957808201518184015260208101905061049e565b50505050905090810190601f1680156104e65780820380516001836020036101000a031916815260200191505b5092505050602060405180830381600087803b15801561050557600080fd5b505af1158015610519573d6000803e3d6000fd5b505050506040513d602081101561052f57600080fd5b810190808051906020019092919050505092508891508173ffffffffffffffffffffffffffffffffffffffff16632a0c9d9988856040518363ffffffff167c0100000000000000000000000000000000000000000000000000000000028152600401808373ffffffffffffffffffffffffffffffffffffffff1673ffffffffffffffffffffffffffffffffffffffff1681526020018260ff1660ff16815260200192505050602060405180830381600087803b1580156105ee57600080fd5b505af1158015610602573d6000803e3d6000fd5b505050506040513d602081101561061857600080fd5b8101908080519060200190929190505050905080151561063757600080fd5b86856080019073ffffffffffffffffffffffffffffffffffffffff16908173ffffffffffffffffffffffffffffffffffffffff16815250508460006001880381548110151561068257fe5b906000526020600020906005020160008201518160000160006101000a81548173ffffffffffffffffffffffffffffffffffffffff021916908373ffffffffffffffffffffffffffffffffffffffff16021790555060208201518160010190805190602001906106f392919061117b565b50604082015181600201556060820151816003015560808201518160040160006101000a81548173ffffffffffffffffffffffffffffffffffffffff021916908373ffffffffffffffffffffffffffffffffffffffff16021790555060a08201518160040160146101000a81548160ff021916908315150217905550905050505050505050505050565b60008060008060008061078e611116565b8c96508673ffffffffffffffffffffffffffffffffffffffff16639e4008b18b8e6040518363ffffffff167c0100000000000000000000000000000000000000000000000000000000028152600401808381526020018273ffffffffffffffffffffffffffffffffffffffff1673ffffffffffffffffffffffffffffffffffffffff16815260200192505050602060405180830381600087803b15801561083457600080fd5b505af1158015610848573d6000803e3d6000fd5b505050506040513d602081101561085e57600080fd5b8101908080519060200190929190505050151561087a57600080fd5b8a95508573ffffffffffffffffffffffffffffffffffffffff1663efbccb538a6040518263ffffffff167c01000000000000000000000000000000000000000000000000000000000281526004018080602001828103825283818151815260200191508051906020019080838360005b838110156109055780820151818401526020810190506108ea565b50505050905090810190601f1680156109325780820380516001836020036101000a031916815260200191505b50925050506040805180830381600087803b15801561095057600080fd5b505af1158015610964573d6000803e3d6000fd5b505050506040513d604081101561097a57600080fd5b81019080805190602001909291908051906020019092919050505080955081965050508673ffffffffffffffffffffffffffffffffffffffff166394a1a4b68b6040518263ffffffff167c010000000000000000000000000000000000000000000000000000000002815260040180828152602001915050602060405180830381600087803b158015610a0c57600080fd5b505af1158015610a20573d6000803e3d6000fd5b505050506040513d6020811015610a3657600080fd5b810190808051906020019092919050505092508273ffffffffffffffffffffffffffffffffffffffff16636e026642856040518263ffffffff167c0100000000000000000000000000000000000000000000000000000000028152600401808260ff1660ff168152602001915050602060405180830381600087803b158015610abe57600080fd5b505af1158015610ad2573d6000803e3d6000fd5b505050506040513d6020811015610ae857600080fd5b81019080805190602001909291905050509150811515610b0757600080fd5b60c0604051908101604052808d73ffffffffffffffffffffffffffffffffffffffff1681526020018a81526020018981526020018987028152602001600073ffffffffffffffffffffffffffffffffffffffff1681526020016000151581525090506000819080600181540180825580915050906001820390600052602060002090600502016000909192909190915060008201518160000160006101000a81548173ffffffffffffffffffffffffffffffffffffffff021916908373ffffffffffffffffffffffffffffffffffffffff1602179055506020820151816001019080519060200190610bfa92919061117b565b50604082015181600201556060820151816003015560808201518160040160006101000a81548173ffffffffffffffffffffffffffffffffffffffff021916908373ffffffffffffffffffffffffffffffffffffffff16021790555060a08201518160040160146101000a81548160ff0219169083151502179055505050508673ffffffffffffffffffffffffffffffffffffffff1663f4569e92308c84606001516040518463ffffffff167c0100000000000000000000000000000000000000000000000000000000028152600401808473ffffffffffffffffffffffffffffffffffffffff1673ffffffffffffffffffffffffffffffffffffffff1681526020018381526020018281526020019350505050600060405180830381600087803b158015610d2857600080fd5b505af1158015610d3c573d6000803e3d6000fd5b5050505050505050505050505050505050565b610d57611116565b6000805490508311151515610d6b57600080fd5b600060018403815481101515610d7d57fe5b906000526020600020906005020160c060405190810160405290816000820160009054906101000a900473ffffffffffffffffffffffffffffffffffffffff1673ffffffffffffffffffffffffffffffffffffffff1673ffffffffffffffffffffffffffffffffffffffff168152602001600182018054600181600116156101000203166002900480601f016020809104026020016040519081016040528092919081815260200182805460018160011615610100020316600290048015610e865780601f10610e5b57610100808354040283529160200191610e86565b820191906000526020600020905b815481529060010190602001808311610e6957829003601f168201915b5050505050815260200160028201548152602001600382015481526020016004820160009054906101000a900473ffffffffffffffffffffffffffffffffffffffff1673ffffffffffffffffffffffffffffffffffffffff1673ffffffffffffffffffffffffffffffffffffffff1681526020016004820160149054906101000a900460ff1615151515815250509050806080015173ffffffffffffffffffffffffffffffffffffffff168273ffffffffffffffffffffffffffffffffffffffff16148015610f5d5750600015158160a001511515145b8015610f84575080606001513073ffffffffffffffffffffffffffffffffffffffff163110155b1515610f8f57600080fd5b60018160a0019015159081151581525050806080015173ffffffffffffffffffffffffffffffffffffffff166108fc82606001519081150290604051600060405180830381858888f19350505050158015610fee573d6000803e3d6000fd5b508060006001850381548110151561100257fe5b906000526020600020906005020160008201518160000160006101000a81548173ffffffffffffffffffffffffffffffffffffffff021916908373ffffffffffffffffffffffffffffffffffffffff160217905550602082015181600101908051906020019061107392919061117b565b50604082015181600201556060820151816003015560808201518160040160006101000a81548173ffffffffffffffffffffffffffffffffffffffff021916908373ffffffffffffffffffffffffffffffffffffffff16021790555060a08201518160040160146101000a81548160ff021916908315150217905550905050505050565b60003073ffffffffffffffffffffffffffffffffffffffff1631905090565b60c060405190810160405280600073ffffffffffffffffffffffffffffffffffffffff168152602001606081526020016000815260200160008152602001600073ffffffffffffffffffffffffffffffffffffffff1681526020016000151581525090565b828054600181600116156101000203166002900490600052602060002090601f016020900481019282601f106111bc57805160ff19168380011785556111ea565b828001600101855582156111ea579182015b828111156111e95782518255916020019190600101906111ce565b5b5090506111f791906111fb565b5090565b61121d91905b80821115611219576000816000905550600101611201565b5090565b905600a165627a7a72305820378c8e73653367b580449211130574337c219e80a176fd07892829f5aed3577c0029",
  "source": "pragma solidity ^0.4.21;\r\n\r\nimport \"./Contratos.sol\";\r\nimport \"./Cobertura.sol\";\r\nimport \"./Servicos.sol\";\r\nimport \"./Prestadores.sol\";\r\n\r\ncontract Autorizador {\r\n    \r\n    struct Autorizacao {\r\n        address beneficiario;\r\n        string codigoTuss;\r\n        uint quantidade;\r\n        uint valor;\r\n        address prestador;\r\n        bool confirmada;\r\n    }\r\n    \r\n    Autorizacao[] autorizacoes;\r\n    \r\n    function() payable public {\r\n    }\r\n    \r\n    function registrarAutorizacao(address _enderecoContratos, address _beneficiario, address _servicos, uint _codigoDoContrato, string _codigoTUSS, uint _quantidade) public {\r\n        \r\n        Contratos contratos = Contratos(_enderecoContratos);\r\n        \r\n        //Verificar se o beneficiario pertence ao contrato informado\r\n        require(contratos.verificarBeneficiario(_codigoDoContrato, _beneficiario));\r\n\r\n        //Encontrar serviço pelo codigo (Codigo, Nome, Valor, Agrupamento) - Clase Servicos\r\n        Servicos servicos = Servicos(_servicos);\r\n        uint preco;\r\n        uint8 agrupador;\r\n        (preco, agrupador) = servicos.consultarServico(_codigoTUSS);\r\n        \r\n        //require(address(contratos).balance >= (preco * _quantidade));\r\n\r\n        //Validar se possui cobertura para o serviço\r\n        Cobertura cobertura = Cobertura(contratos.recuperarCobertura(_codigoDoContrato));\r\n        bool possuiCobertura = cobertura.possuiCobertura(agrupador);\r\n        \r\n        require(possuiCobertura);\r\n        \r\n        //Validar se o beneficiario está em carência para o agrupamento\r\n        //Carencia carencia = Carencia(contratos.recuperarCarencia(_codigoDoContrato, _beneficiario));\r\n        //bool emCarencia = carencia.possuiCarencia(agrupador);\r\n        \r\n        //require(emCarencia);\r\n        \r\n        //Gerar autorizacao\r\n        Autorizacao memory autorizacao = Autorizacao({beneficiario: _beneficiario, codigoTuss: _codigoTUSS, quantidade: _quantidade, valor: (preco * _quantidade), prestador: address(0x0), confirmada: false });\r\n        autorizacoes.push(autorizacao);\r\n        \r\n        contratos.pagarAutorizacao(address(this), _codigoDoContrato, autorizacao.valor);\r\n        \r\n        //emit(autorizacoes.length)\r\n    }\r\n    \r\n    function realizarExecucao(address _contratoPrestadores, address _servicos, address _prestador, uint _numeroDaAutorizacao) public {\r\n        require(_numeroDaAutorizacao <= autorizacoes.length);\r\n        \r\n        Autorizacao memory autorizacao = autorizacoes[_numeroDaAutorizacao - 1];\r\n        require(autorizacao.confirmada == false);\r\n        \r\n        Servicos servicos = Servicos(_servicos);\r\n        uint8 agrupador = servicos.consultarAgrupador(autorizacao.codigoTuss);\r\n        \r\n        Prestadores prestadores = Prestadores(_contratoPrestadores);\r\n        bool prestadorOk = prestadores.verificarPrestador(_prestador, agrupador);\r\n        \r\n        require(prestadorOk);\r\n\r\n        autorizacao.prestador = _prestador;\r\n        \r\n        autorizacoes[_numeroDaAutorizacao - 1] = autorizacao;\r\n    }\r\n    \r\n    function confirmarExecucao(uint _numeroDaAutorizacao, address _prestador) public {\r\n        require(_numeroDaAutorizacao <= autorizacoes.length);\r\n        \r\n        Autorizacao memory autorizacao = autorizacoes[_numeroDaAutorizacao - 1];\r\n        require((_prestador == autorizacao.prestador) && (autorizacao.confirmada == false) && (address(this).balance >= autorizacao.valor));\r\n        \r\n        autorizacao.confirmada = true;\r\n        autorizacao.prestador.transfer(autorizacao.valor);\r\n        \r\n        autorizacoes[_numeroDaAutorizacao - 1] = autorizacao;\r\n    }\r\n\r\n    function consultarSaldo() public view returns (uint saldo) {\r\n        saldo = address(this).balance;\r\n    }\r\n}",
  "sourcePath": "C:\\DEVBC\\OperadoraBlockchain\\solidity\\contracts\\Autorizador.sol",
  "compiler": {
    "name": "solc",
    "version": "0.4.23+commit.124ca40d.Emscripten.clang"
  },
  "schemaVersion": "2.0.0",
  "updatedAt": "2018-05-09T17:27:57.131Z"
}