{
  "contractName": "Autorizador",
  "abi": [
    {
      "constant": false,
      "inputs": [
        {
          "name": "_enderecoContratos",
          "type": "address"
        },
        {
          "name": "_beneficiario",
          "type": "address"
        },
        {
          "name": "_servicos",
          "type": "address"
        },
        {
          "name": "_codigoDoContrato",
          "type": "uint256"
        },
        {
          "name": "_codigoTUSS",
          "type": "string"
        },
        {
          "name": "_quantidade",
          "type": "uint256"
        }
      ],
      "name": "registrarAutorizacao",
      "outputs": [],
      "payable": false,
      "stateMutability": "nonpayable",
      "type": "function"
    },
    {
      "constant": false,
      "inputs": [
        {
          "name": "_contratoPrestadores",
          "type": "address"
        },
        {
          "name": "_servicos",
          "type": "address"
        },
        {
          "name": "_numeroDaAutorizacao",
          "type": "uint256"
        }
      ],
      "name": "realizarExecucao",
      "outputs": [],
      "payable": false,
      "stateMutability": "nonpayable",
      "type": "function"
    },
    {
      "constant": false,
      "inputs": [
        {
          "name": "_numeroDaAutorizacao",
          "type": "uint256"
        },
        {
          "name": "_prestador",
          "type": "address"
        }
      ],
      "name": "confirmarExecucao",
      "outputs": [],
      "payable": false,
      "stateMutability": "nonpayable",
      "type": "function"
    }
  ],
  "bytecode": "0x608060405234801561001057600080fd5b5061123c806100206000396000f300608060405260043610610057576000357c0100000000000000000000000000000000000000000000000000000000900463ffffffff16806388c17eb61461005c578063952a1664146100c9578063cff7d1e8146101a6575b600080fd5b34801561006857600080fd5b506100c7600480360381019080803573ffffffffffffffffffffffffffffffffffffffff169060200190929190803573ffffffffffffffffffffffffffffffffffffffff169060200190929190803590602001909291905050506101f3565b005b3480156100d557600080fd5b506101a4600480360381019080803573ffffffffffffffffffffffffffffffffffffffff169060200190929190803573ffffffffffffffffffffffffffffffffffffffff169060200190929190803573ffffffffffffffffffffffffffffffffffffffff16906020019092919080359060200190929190803590602001908201803590602001908080601f016020809104026020016040519081016040528093929190818152602001838380828437820191505050505050919291929080359060200190929190505050610729565b005b3480156101b257600080fd5b506101f160048036038101908080359060200190929190803573ffffffffffffffffffffffffffffffffffffffff169060200190929190505050610d23565b005b6101fb611106565b600080600080600080549050861115151561021557600080fd5b60006001870381548110151561022757fe5b906000526020600020906005020160c060405190810160405290816000820160009054906101000a900473ffffffffffffffffffffffffffffffffffffffff1673ffffffffffffffffffffffffffffffffffffffff1673ffffffffffffffffffffffffffffffffffffffff168152602001600182018054600181600116156101000203166002900480601f0160208091040260200160405190810160405280929190818152602001828054600181600116156101000203166002900480156103305780601f1061030557610100808354040283529160200191610330565b820191906000526020600020905b81548152906001019060200180831161031357829003601f168201915b5050505050815260200160028201548152602001600382015481526020016004820160009054906101000a900473ffffffffffffffffffffffffffffffffffffffff1673ffffffffffffffffffffffffffffffffffffffff1673ffffffffffffffffffffffffffffffffffffffff1681526020016004820160149054906101000a900460ff1615151515815250509450600015158560a0015115151415156103d757600080fd5b8693508373ffffffffffffffffffffffffffffffffffffffff16638451869c86602001516040518263ffffffff167c01000000000000000000000000000000000000000000000000000000000281526004018080602001828103825283818151815260200191508051906020019080838360005b8381101561046657808201518184015260208101905061044b565b50505050905090810190601f1680156104935780820380516001836020036101000a031916815260200191505b5092505050602060405180830381600087803b1580156104b257600080fd5b505af11580156104c6573d6000803e3d6000fd5b505050506040513d60208110156104dc57600080fd5b810190808051906020019092919050505092508791508173ffffffffffffffffffffffffffffffffffffffff16632a0c9d9933856040518363ffffffff167c0100000000000000000000000000000000000000000000000000000000028152600401808373ffffffffffffffffffffffffffffffffffffffff1673ffffffffffffffffffffffffffffffffffffffff1681526020018260ff1660ff16815260200192505050602060405180830381600087803b15801561059b57600080fd5b505af11580156105af573d6000803e3d6000fd5b505050506040513d60208110156105c557600080fd5b810190808051906020019092919050505090508015156105e457600080fd5b33856080019073ffffffffffffffffffffffffffffffffffffffff16908173ffffffffffffffffffffffffffffffffffffffff16815250508460006001880381548110151561062f57fe5b906000526020600020906005020160008201518160000160006101000a81548173ffffffffffffffffffffffffffffffffffffffff021916908373ffffffffffffffffffffffffffffffffffffffff16021790555060208201518160010190805190602001906106a092919061116b565b50604082015181600201556060820151816003015560808201518160040160006101000a81548173ffffffffffffffffffffffffffffffffffffffff021916908373ffffffffffffffffffffffffffffffffffffffff16021790555060a08201518160040160146101000a81548160ff0219169083151502179055509050505050505050505050565b60008060008060008061073a611106565b8c96508673ffffffffffffffffffffffffffffffffffffffff16639e4008b18b8e6040518363ffffffff167c0100000000000000000000000000000000000000000000000000000000028152600401808381526020018273ffffffffffffffffffffffffffffffffffffffff1673ffffffffffffffffffffffffffffffffffffffff16815260200192505050602060405180830381600087803b1580156107e057600080fd5b505af11580156107f4573d6000803e3d6000fd5b505050506040513d602081101561080a57600080fd5b8101908080519060200190929190505050151561082657600080fd5b8a95508573ffffffffffffffffffffffffffffffffffffffff1663efbccb538a6040518263ffffffff167c01000000000000000000000000000000000000000000000000000000000281526004018080602001828103825283818151815260200191508051906020019080838360005b838110156108b1578082015181840152602081019050610896565b50505050905090810190601f1680156108de5780820380516001836020036101000a031916815260200191505b50925050506040805180830381600087803b1580156108fc57600080fd5b505af1158015610910573d6000803e3d6000fd5b505050506040513d604081101561092657600080fd5b81019080805190602001909291908051906020019092919050505080955081965050508785028773ffffffffffffffffffffffffffffffffffffffff16311015151561097157600080fd5b8673ffffffffffffffffffffffffffffffffffffffff166394a1a4b68b6040518263ffffffff167c010000000000000000000000000000000000000000000000000000000002815260040180828152602001915050602060405180830381600087803b1580156109e057600080fd5b505af11580156109f4573d6000803e3d6000fd5b505050506040513d6020811015610a0a57600080fd5b810190808051906020019092919050505092508273ffffffffffffffffffffffffffffffffffffffff16636e026642856040518263ffffffff167c0100000000000000000000000000000000000000000000000000000000028152600401808260ff1660ff168152602001915050602060405180830381600087803b158015610a9257600080fd5b505af1158015610aa6573d6000803e3d6000fd5b505050506040513d6020811015610abc57600080fd5b81019080805190602001909291905050509150811515610adb57600080fd5b60c0604051908101604052808d73ffffffffffffffffffffffffffffffffffffffff1681526020018a81526020018981526020018987028152602001600073ffffffffffffffffffffffffffffffffffffffff1681526020016000151581525090506000819080600181540180825580915050906001820390600052602060002090600502016000909192909190915060008201518160000160006101000a81548173ffffffffffffffffffffffffffffffffffffffff021916908373ffffffffffffffffffffffffffffffffffffffff1602179055506020820151816001019080519060200190610bce92919061116b565b50604082015181600201556060820151816003015560808201518160040160006101000a81548173ffffffffffffffffffffffffffffffffffffffff021916908373ffffffffffffffffffffffffffffffffffffffff16021790555060a08201518160040160146101000a81548160ff0219169083151502179055505050508673ffffffffffffffffffffffffffffffffffffffff1663f4569e92308c84606001516040518463ffffffff167c0100000000000000000000000000000000000000000000000000000000028152600401808473ffffffffffffffffffffffffffffffffffffffff1673ffffffffffffffffffffffffffffffffffffffff1681526020018381526020018281526020019350505050600060405180830381600087803b158015610cfc57600080fd5b505af1158015610d10573d6000803e3d6000fd5b5050505050505050505050505050505050565b610d2b611106565b6000805490508311151515610d3f57600080fd5b600060018403815481101515610d5157fe5b906000526020600020906005020160c060405190810160405290816000820160009054906101000a900473ffffffffffffffffffffffffffffffffffffffff1673ffffffffffffffffffffffffffffffffffffffff1673ffffffffffffffffffffffffffffffffffffffff168152602001600182018054600181600116156101000203166002900480601f016020809104026020016040519081016040528092919081815260200182805460018160011615610100020316600290048015610e5a5780601f10610e2f57610100808354040283529160200191610e5a565b820191906000526020600020905b815481529060010190602001808311610e3d57829003601f168201915b5050505050815260200160028201548152602001600382015481526020016004820160009054906101000a900473ffffffffffffffffffffffffffffffffffffffff1673ffffffffffffffffffffffffffffffffffffffff1673ffffffffffffffffffffffffffffffffffffffff1681526020016004820160149054906101000a900460ff1615151515815250509050806000015173ffffffffffffffffffffffffffffffffffffffff163373ffffffffffffffffffffffffffffffffffffffff16148015610f585750806080015173ffffffffffffffffffffffffffffffffffffffff168273ffffffffffffffffffffffffffffffffffffffff16145b8015610f6c5750600015158160a001511515145b8015610f93575080606001513073ffffffffffffffffffffffffffffffffffffffff163110155b1515610f9e57600080fd5b60018160a0019015159081151581525050806080015173ffffffffffffffffffffffffffffffffffffffff166108fc82606001519081150290604051600060405180830381858888f19350505050158015610ffd573d6000803e3d6000fd5b508060006001850381548110151561101157fe5b906000526020600020906005020160008201518160000160006101000a81548173ffffffffffffffffffffffffffffffffffffffff021916908373ffffffffffffffffffffffffffffffffffffffff160217905550602082015181600101908051906020019061108292919061116b565b50604082015181600201556060820151816003015560808201518160040160006101000a81548173ffffffffffffffffffffffffffffffffffffffff021916908373ffffffffffffffffffffffffffffffffffffffff16021790555060a08201518160040160146101000a81548160ff021916908315150217905550905050505050565b60c060405190810160405280600073ffffffffffffffffffffffffffffffffffffffff168152602001606081526020016000815260200160008152602001600073ffffffffffffffffffffffffffffffffffffffff1681526020016000151581525090565b828054600181600116156101000203166002900490600052602060002090601f016020900481019282601f106111ac57805160ff19168380011785556111da565b828001600101855582156111da579182015b828111156111d95782518255916020019190600101906111be565b5b5090506111e791906111eb565b5090565b61120d91905b808211156112095760008160009055506001016111f1565b5090565b905600a165627a7a72305820be7e43e72d762cfaa68fdcb9306d958dadc8d0340c1d833fedd8dac58c6076020029",
  "source": "pragma solidity ^0.4.21;\r\n\r\nimport \"./Contratos.sol\";\r\nimport \"./Cobertura.sol\";\r\nimport \"./Servicos.sol\";\r\nimport \"./Prestadores.sol\";\r\n\r\ncontract Autorizador {\r\n    \r\n    struct Autorizacao {\r\n        address beneficiario;\r\n        string codigoTuss;\r\n        uint quantidade;\r\n        uint valor;\r\n        address prestador;\r\n        bool confirmada;\r\n    }\r\n    \r\n    Autorizacao[] autorizacoes;\r\n    \r\n    function registrarAutorizacao(address _enderecoContratos, address _beneficiario, address _servicos, uint _codigoDoContrato, string _codigoTUSS, uint _quantidade) public {\r\n        \r\n        Contratos contratos = Contratos(_enderecoContratos);\r\n        \r\n        //Verificar se o beneficiario pertence ao contrato informado\r\n        require(contratos.verificarBeneficiario(_codigoDoContrato, _beneficiario));\r\n\r\n        //Encontrar serviço pelo codigo (Codigo, Nome, Valor, Agrupamento) - Clase Servicos\r\n        Servicos servicos = Servicos(_servicos);\r\n        uint preco;\r\n        uint8 agrupador;\r\n        (preco, agrupador) = servicos.consultarServico(_codigoTUSS);\r\n        \r\n        require(address(contratos).balance >= (preco * _quantidade));\r\n\r\n        //Validar se possui cobertura para o serviço\r\n        Cobertura cobertura = Cobertura(contratos.recuperarCobertura(_codigoDoContrato));\r\n        bool possuiCobertura = cobertura.possuiCobertura(agrupador);\r\n        \r\n        require(possuiCobertura);\r\n        \r\n        //Validar se o beneficiario está em carência para o agrupamento\r\n        //Carencia carencia = Carencia(contratos.recuperarCarencia(_codigoDoContrato, _beneficiario));\r\n        //bool emCarencia = carencia.possuiCarencia(agrupador);\r\n        \r\n        //require(emCarencia);\r\n        \r\n        //Gerar autorizacao\r\n        Autorizacao memory autorizacao = Autorizacao({beneficiario: _beneficiario, codigoTuss: _codigoTUSS, quantidade: _quantidade, valor: (preco * _quantidade), prestador: address(0x0), confirmada: false });\r\n        autorizacoes.push(autorizacao);\r\n        \r\n        contratos.pagarAutorizacao(address(this), _codigoDoContrato, autorizacao.valor);\r\n        \r\n        //emit(autorizacoes.length)\r\n    }\r\n    \r\n    function realizarExecucao(address _contratoPrestadores, address _servicos, uint _numeroDaAutorizacao) public {\r\n        require(_numeroDaAutorizacao <= autorizacoes.length);\r\n        \r\n        Autorizacao memory autorizacao = autorizacoes[_numeroDaAutorizacao - 1];\r\n        require(autorizacao.confirmada == false);\r\n        \r\n        Servicos servicos = Servicos(_servicos);\r\n        uint8 agrupador = servicos.consultarAgrupador(autorizacao.codigoTuss);\r\n        \r\n        Prestadores prestadores = Prestadores(_contratoPrestadores);\r\n        bool prestadorOk = prestadores.verificarPrestador(msg.sender, agrupador);\r\n        \r\n        require(prestadorOk);\r\n\r\n        autorizacao.prestador = msg.sender;\r\n        \r\n        autorizacoes[_numeroDaAutorizacao - 1] = autorizacao;\r\n    }\r\n    \r\n    function confirmarExecucao(uint _numeroDaAutorizacao, address _prestador) public {\r\n        require(_numeroDaAutorizacao <= autorizacoes.length);\r\n        \r\n        Autorizacao memory autorizacao = autorizacoes[_numeroDaAutorizacao - 1];\r\n        require((msg.sender == autorizacao.beneficiario) && (_prestador == autorizacao.prestador) && (autorizacao.confirmada == false) && (address(this).balance >= autorizacao.valor));\r\n        \r\n        autorizacao.confirmada = true;\r\n        autorizacao.prestador.transfer(autorizacao.valor);\r\n        \r\n        autorizacoes[_numeroDaAutorizacao - 1] = autorizacao;\r\n    }\r\n}",
  "sourcePath": "C:\\DEVBC\\OperadoraBlockchain\\solidity\\contracts\\Autorizador.sol",
  "compiler": {
    "name": "solc",
    "version": "0.4.23+commit.124ca40d.Emscripten.clang"
  },
  "schemaVersion": "2.0.0",
  "updatedAt": "2018-05-08T22:26:24.691Z"
}