{
  "contractName": "Carencia",
  "abi": [
    {
      "inputs": [],
      "payable": false,
      "stateMutability": "nonpayable",
      "type": "constructor"
    },
    {
      "constant": false,
      "inputs": [
        {
          "name": "_agrupadores",
          "type": "uint8[]"
        }
      ],
      "name": "registrarCarencias",
      "outputs": [],
      "payable": false,
      "stateMutability": "nonpayable",
      "type": "function"
    },
    {
      "constant": false,
      "inputs": [
        {
          "name": "_agrupador",
          "type": "uint8"
        },
        {
          "name": "_emCarencia",
          "type": "bool"
        }
      ],
      "name": "alterarCarencia",
      "outputs": [],
      "payable": false,
      "stateMutability": "nonpayable",
      "type": "function"
    },
    {
      "constant": true,
      "inputs": [
        {
          "name": "_agrupador",
          "type": "uint8"
        }
      ],
      "name": "possuiCarencia",
      "outputs": [
        {
          "name": "",
          "type": "bool"
        }
      ],
      "payable": false,
      "stateMutability": "view",
      "type": "function"
    }
  ],
  "bytecode": "0x608060405234801561001057600080fd5b5061023d806100206000396000f300608060405260043610610057576000357c0100000000000000000000000000000000000000000000000000000000900463ffffffff1680632797afa21461005c578063567584ff146100a4578063a08c0bca1461010a575b600080fd5b34801561006857600080fd5b5061008a600480360381019080803560ff169060200190929190505050610146565b604051808215151515815260200191505060405180910390f35b3480156100b057600080fd5b5061010860048036038101908080359060200190820180359060200190808060200260200160405190810160405280939291908181526020018383602002808284378201915050505050509192919290505050610175565b005b34801561011657600080fd5b50610144600480360381019080803560ff1690602001909291908035151590602001909291905050506101dd565b005b60008060008360ff1660ff16815260200190815260200160002060009054906101000a900460ff169050919050565b60008090505b81518110156101d9576001600080848481518110151561019757fe5b9060200190602002015160ff1660ff16815260200190815260200160002060006101000a81548160ff021916908315150217905550808060010191505061017b565b5050565b806000808460ff1660ff16815260200190815260200160002060006101000a81548160ff02191690831515021790555050505600a165627a7a72305820674b50da588cd280cf22653bc105bd0a30e7dac627226b0854bb122c94ff2c6b0029",
  "source": "pragma solidity ^0.4.21;\r\n\r\ncontract Carencia {\r\n    \r\n    constructor() public {}\r\n\r\n    mapping(uint8 => bool) carencia;\r\n    \r\n    function registrarCarencias(uint8[] _agrupadores) public {\r\n        for (uint x = 0; x < _agrupadores.length; x++) {\r\n            carencia[_agrupadores[x]] = true;\r\n        }\r\n    }\r\n    \r\n    function alterarCarencia(uint8 _agrupador, bool _emCarencia) public {\r\n        carencia[_agrupador] = _emCarencia;\r\n    }\r\n    \r\n    function possuiCarencia(uint8 _agrupador) public view returns (bool) {\r\n        return carencia[_agrupador];\r\n    }\r\n}",
  "sourcePath": "C:\\DEVBC\\OperadoraBlockchain\\solidity\\contracts\\Carencia.sol",
  "compiler": {
    "name": "solc",
    "version": "0.4.23+commit.124ca40d.Emscripten.clang"
  },
  "schemaVersion": "2.0.0",
  "updatedAt": "2018-05-09T03:39:17.634Z"
}