{
  "contractName": "Cobertura",
  "abi": [
    {
      "constant": false,
      "inputs": [
        {
          "name": "_agrupadores",
          "type": "uint8[]"
        }
      ],
      "name": "registrarCoberturas",
      "outputs": [],
      "payable": false,
      "stateMutability": "nonpayable",
      "type": "function"
    },
    {
      "constant": false,
      "inputs": [
        {
          "name": "_agrupador",
          "type": "uint8"
        },
        {
          "name": "_possuiCobertura",
          "type": "bool"
        }
      ],
      "name": "alterarCobertura",
      "outputs": [],
      "payable": false,
      "stateMutability": "nonpayable",
      "type": "function"
    },
    {
      "constant": true,
      "inputs": [
        {
          "name": "_agrupador",
          "type": "uint8"
        }
      ],
      "name": "possuiCobertura",
      "outputs": [
        {
          "name": "",
          "type": "bool"
        }
      ],
      "payable": false,
      "stateMutability": "view",
      "type": "function"
    }
  ],
  "bytecode": "0x608060405234801561001057600080fd5b5061023d806100206000396000f300608060405260043610610057576000357c0100000000000000000000000000000000000000000000000000000000900463ffffffff16806326a17cbc1461005c5780636e026642146100c257806370a3b2ae1461010a575b600080fd5b34801561006857600080fd5b506100c060048036038101908080359060200190820180359060200190808060200260200160405190810160405280939291908181526020018383602002808284378201915050505050509192919290505050610146565b005b3480156100ce57600080fd5b506100f0600480360381019080803560ff1690602001909291905050506101ae565b604051808215151515815260200191505060405180910390f35b34801561011657600080fd5b50610144600480360381019080803560ff1690602001909291908035151590602001909291905050506101dd565b005b60008090505b81518110156101aa576001600080848481518110151561016857fe5b9060200190602002015160ff1660ff16815260200190815260200160002060006101000a81548160ff021916908315150217905550808060010191505061014c565b5050565b60008060008360ff1660ff16815260200190815260200160002060009054906101000a900460ff169050919050565b806000808460ff1660ff16815260200190815260200160002060006101000a81548160ff02191690831515021790555050505600a165627a7a7230582010a3731e0ba2da3eb4f0b5af3aba2d76580b8e8cd59b791a66306ee663db06620029",
  "source": "pragma solidity ^0.4.21;\r\n\r\ncontract Cobertura {\r\n    \r\n    mapping(uint8 => bool) cobertura;\r\n    \r\n    function registrarCoberturas(uint8[] _agrupadores) public {\r\n        for (uint x = 0; x < _agrupadores.length; x++) {\r\n            cobertura[_agrupadores[x]] = true;\r\n        }\r\n    }\r\n    \r\n    function alterarCobertura(uint8 _agrupador, bool _possuiCobertura) public {\r\n        cobertura[_agrupador] = _possuiCobertura;\r\n    }\r\n    \r\n    function possuiCobertura(uint8 _agrupador) public view returns (bool) {\r\n        return cobertura[_agrupador];\r\n    }\r\n}",
  "sourcePath": "C:\\DEVBC\\OperadoraBlockchain\\solidity\\contracts\\Cobertura.sol",
  "compiler": {
    "name": "solc",
    "version": "0.4.23+commit.124ca40d.Emscripten.clang"
  },
  "schemaVersion": "2.0.0",
  "updatedAt": "2018-05-09T16:12:38.743Z"
}