{
  "contractName": "Contratos",
  "abi": [
    {
      "inputs": [],
      "payable": false,
      "stateMutability": "nonpayable",
      "type": "constructor"
    },
    {
      "constant": false,
      "inputs": [
        {
          "name": "_codigoContrato",
          "type": "uint256"
        },
        {
          "name": "_nomeContrato",
          "type": "string"
        },
        {
          "name": "_hash",
          "type": "string"
        }
      ],
      "name": "adicionarContrato",
      "outputs": [],
      "payable": false,
      "stateMutability": "nonpayable",
      "type": "function"
    },
    {
      "constant": false,
      "inputs": [
        {
          "name": "_codigoContrato",
          "type": "uint256"
        }
      ],
      "name": "receberPagamento",
      "outputs": [],
      "payable": true,
      "stateMutability": "payable",
      "type": "function"
    },
    {
      "constant": false,
      "inputs": [
        {
          "name": "_autorizador",
          "type": "address"
        },
        {
          "name": "_codigoContrato",
          "type": "uint256"
        },
        {
          "name": "_valor",
          "type": "uint256"
        }
      ],
      "name": "pagarAutorizacao",
      "outputs": [],
      "payable": false,
      "stateMutability": "nonpayable",
      "type": "function"
    },
    {
      "constant": false,
      "inputs": [
        {
          "name": "_codigoContrato",
          "type": "uint256"
        },
        {
          "name": "_wallet",
          "type": "address"
        },
        {
          "name": "_nome",
          "type": "string"
        },
        {
          "name": "_carteira",
          "type": "string"
        }
      ],
      "name": "adicionarBeneficiario",
      "outputs": [],
      "payable": false,
      "stateMutability": "nonpayable",
      "type": "function"
    },
    {
      "constant": true,
      "inputs": [
        {
          "name": "_codigoContrato",
          "type": "uint256"
        }
      ],
      "name": "consultarSaldo",
      "outputs": [
        {
          "name": "saldo",
          "type": "uint256"
        }
      ],
      "payable": false,
      "stateMutability": "view",
      "type": "function"
    },
    {
      "constant": true,
      "inputs": [],
      "name": "consultarSaldoTotal",
      "outputs": [
        {
          "name": "saldo",
          "type": "uint256"
        }
      ],
      "payable": false,
      "stateMutability": "view",
      "type": "function"
    },
    {
      "constant": true,
      "inputs": [
        {
          "name": "_codigoContrato",
          "type": "uint256"
        },
        {
          "name": "_beneficiario",
          "type": "address"
        }
      ],
      "name": "verificarBeneficiario",
      "outputs": [
        {
          "name": "ok",
          "type": "bool"
        }
      ],
      "payable": false,
      "stateMutability": "view",
      "type": "function"
    },
    {
      "constant": false,
      "inputs": [
        {
          "name": "_codigoContrato",
          "type": "uint256"
        },
        {
          "name": "_beneficiario",
          "type": "address"
        },
        {
          "name": "_agrupador",
          "type": "uint8"
        },
        {
          "name": "_carencia",
          "type": "bool"
        }
      ],
      "name": "alterarCarencia",
      "outputs": [],
      "payable": false,
      "stateMutability": "nonpayable",
      "type": "function"
    },
    {
      "constant": false,
      "inputs": [
        {
          "name": "_codigoContrato",
          "type": "uint256"
        },
        {
          "name": "_beneficiario",
          "type": "address"
        }
      ],
      "name": "removerBeneficiario",
      "outputs": [],
      "payable": false,
      "stateMutability": "nonpayable",
      "type": "function"
    },
    {
      "constant": false,
      "inputs": [
        {
          "name": "_codigoContrato",
          "type": "uint256"
        },
        {
          "name": "_agrupador",
          "type": "uint8"
        }
      ],
      "name": "adicionarCobertura",
      "outputs": [],
      "payable": false,
      "stateMutability": "nonpayable",
      "type": "function"
    },
    {
      "constant": false,
      "inputs": [
        {
          "name": "_codigoContrato",
          "type": "uint256"
        },
        {
          "name": "_agrupador",
          "type": "uint8"
        }
      ],
      "name": "removerCobertura",
      "outputs": [],
      "payable": false,
      "stateMutability": "nonpayable",
      "type": "function"
    },
    {
      "constant": true,
      "inputs": [
        {
          "name": "_codigoContrato",
          "type": "uint256"
        }
      ],
      "name": "recuperarCobertura",
      "outputs": [
        {
          "name": "",
          "type": "address"
        }
      ],
      "payable": false,
      "stateMutability": "view",
      "type": "function"
    },
    {
      "constant": false,
      "inputs": [],
      "name": "cancelarContrato",
      "outputs": [],
      "payable": false,
      "stateMutability": "nonpayable",
      "type": "function"
    }
  ],
  "bytecode": "0x608060405234801561001057600080fd5b50336000806101000a81548173ffffffffffffffffffffffffffffffffffffffff021916908373ffffffffffffffffffffffffffffffffffffffff160217905550611bb0806100606000396000f3006080604052600436106100c5576000357c0100000000000000000000000000000000000000000000000000000000900463ffffffff16806301e4fb2c146100ca57806322c3a121146100f5578063266843991461012f5780638404b6b51461017c5780638bb5db74146101b657806394a1a4b6146101cd57806398886ec91461023a5780639e4008b114610313578063d8b5f3f914610378578063de4dd163146103b9578063ee659d6514610472578063f4569e92146104d8578063f91f9ac31461052f575b600080fd5b3480156100d657600080fd5b506100df61054f565b6040518082815260200191505060405180910390f35b34801561010157600080fd5b5061012d60048036038101908080359060200190929190803560ff16906020019092919050505061056e565b005b34801561013b57600080fd5b5061017a60048036038101908080359060200190929190803573ffffffffffffffffffffffffffffffffffffffff16906020019092919050505061069d565b005b34801561018857600080fd5b506101b460048036038101908080359060200190929190803560ff1690602001909291905050506107ad565b005b3480156101c257600080fd5b506101cb6108dc565b005b3480156101d957600080fd5b506101f860048036038101908080359060200190929190505050610971565b604051808273ffffffffffffffffffffffffffffffffffffffff1673ffffffffffffffffffffffffffffffffffffffff16815260200191505060405180910390f35b34801561024657600080fd5b5061031160048036038101908080359060200190929190803573ffffffffffffffffffffffffffffffffffffffff169060200190929190803590602001908201803590602001908080601f0160208091040260200160405190810160405280939291908181526020018383808284378201915050505050509192919290803590602001908201803590602001908080601f01602080910402602001604051908101604052809392919081815260200183838082843782019150505050505091929192905050506109b1565b005b34801561031f57600080fd5b5061035e60048036038101908080359060200190929190803573ffffffffffffffffffffffffffffffffffffffff169060200190929190505050610e2d565b604051808215151515815260200191505060405180910390f35b34801561038457600080fd5b506103a360048036038101908080359060200190929190505050610f30565b6040518082815260200191505060405180910390f35b3480156103c557600080fd5b5061047060048036038101908080359060200190929190803590602001908201803590602001908080601f0160208091040260200160405190810160405280939291908181526020018383808284378201915050505050509192919290803590602001908201803590602001908080601f0160208091040260200160405190810160405280939291908181526020018383808284378201915050505050509192919290505050610f50565b005b34801561047e57600080fd5b506104d660048036038101908080359060200190929190803573ffffffffffffffffffffffffffffffffffffffff169060200190929190803560ff169060200190929190803515159060200190929190505050611275565b005b3480156104e457600080fd5b5061052d600480360381019080803573ffffffffffffffffffffffffffffffffffffffff16906020019092919080359060200190929190803590602001909291905050506114dc565b005b61054d60048036038101908080359060200190929190505050611587565b005b60003073ffffffffffffffffffffffffffffffffffffffff1631905090565b6000809054906101000a900473ffffffffffffffffffffffffffffffffffffffff1673ffffffffffffffffffffffffffffffffffffffff163373ffffffffffffffffffffffffffffffffffffffff161415156105c957600080fd5b6001600083815260200190815260200160002060020160009054906101000a900473ffffffffffffffffffffffffffffffffffffffff1673ffffffffffffffffffffffffffffffffffffffff166370a3b2ae8260016040518363ffffffff167c0100000000000000000000000000000000000000000000000000000000028152600401808360ff1660ff1681526020018215151515815260200192505050600060405180830381600087803b15801561068157600080fd5b505af1158015610695573d6000803e3d6000fd5b505050505050565b6000809054906101000a900473ffffffffffffffffffffffffffffffffffffffff1673ffffffffffffffffffffffffffffffffffffffff163373ffffffffffffffffffffffffffffffffffffffff161415156106f857600080fd5b6001600083815260200190815260200160002060040160008273ffffffffffffffffffffffffffffffffffffffff1673ffffffffffffffffffffffffffffffffffffffff1681526020019081526020016000206000808201600061075c91906115bd565b60018201600061076c91906115bd565b6002820160006101000a81549073ffffffffffffffffffffffffffffffffffffffff02191690556002820160146101000a81549060ff021916905550505050565b6000809054906101000a900473ffffffffffffffffffffffffffffffffffffffff1673ffffffffffffffffffffffffffffffffffffffff163373ffffffffffffffffffffffffffffffffffffffff1614151561080857600080fd5b6001600083815260200190815260200160002060020160009054906101000a900473ffffffffffffffffffffffffffffffffffffffff1673ffffffffffffffffffffffffffffffffffffffff166370a3b2ae8260006040518363ffffffff167c0100000000000000000000000000000000000000000000000000000000028152600401808360ff1660ff1681526020018215151515815260200192505050600060405180830381600087803b1580156108c057600080fd5b505af11580156108d4573d6000803e3d6000fd5b505050505050565b6000809054906101000a900473ffffffffffffffffffffffffffffffffffffffff1673ffffffffffffffffffffffffffffffffffffffff163373ffffffffffffffffffffffffffffffffffffffff1614151561093757600080fd5b6000809054906101000a900473ffffffffffffffffffffffffffffffffffffffff1673ffffffffffffffffffffffffffffffffffffffff16ff5b60006001600083815260200190815260200160002060020160009054906101000a900473ffffffffffffffffffffffffffffffffffffffff169050919050565b60606000807f0100000000000000000000000000000000000000000000000000000000000000027effffffffffffffffffffffffffffffffffffffffffffffffffffffffffffff19166001600088815260200190815260200160002060040160008773ffffffffffffffffffffffffffffffffffffffff1673ffffffffffffffffffffffffffffffffffffffff16815260200190815260200160002060020160149054906101000a90047f0100000000000000000000000000000000000000000000000000000000000000027effffffffffffffffffffffffffffffffffffffffffffffffffffffffffffff1916141515610aab57600080fd5b6005604051908082528060200260200182016040528015610adb5781602001602082028038833980820191505090505b5091506001826000815181101515610aef57fe5b9060200190602002019060ff16908160ff16815250506002826001815181101515610b1657fe5b9060200190602002019060ff16908160ff16815250506003826002815181101515610b3d57fe5b9060200190602002019060ff16908160ff16815250506004826003815181101515610b6457fe5b9060200190602002019060ff16908160ff16815250506005826004815181101515610b8b57fe5b9060200190602002019060ff16908160ff1681525050610ba9611605565b604051809103906000f080158015610bc5573d6000803e3d6000fd5b5090508073ffffffffffffffffffffffffffffffffffffffff1663567584ff836040518263ffffffff167c01000000000000000000000000000000000000000000000000000000000281526004018080602001828103825283818151815260200191508051906020019060200280838360005b83811015610c53578082015181840152602081019050610c38565b5050505090500192505050600060405180830381600087803b158015610c7857600080fd5b505af1158015610c8c573d6000803e3d6000fd5b505050506080604051908101604052808581526020018481526020018273ffffffffffffffffffffffffffffffffffffffff16815260200160017f0100000000000000000000000000000000000000000000000000000000000000027effffffffffffffffffffffffffffffffffffffffffffffffffffffffffffff19168152506001600088815260200190815260200160002060040160008773ffffffffffffffffffffffffffffffffffffffff1673ffffffffffffffffffffffffffffffffffffffff1681526020019081526020016000206000820151816000019080519060200190610d7c929190611615565b506020820151816001019080519060200190610d99929190611615565b5060408201518160020160006101000a81548173ffffffffffffffffffffffffffffffffffffffff021916908373ffffffffffffffffffffffffffffffffffffffff16021790555060608201518160020160146101000a81548160ff02191690837f010000000000000000000000000000000000000000000000000000000000000090040217905550905050505050505050565b600060017f0100000000000000000000000000000000000000000000000000000000000000027effffffffffffffffffffffffffffffffffffffffffffffffffffffffffffff19166001600085815260200190815260200160002060040160008473ffffffffffffffffffffffffffffffffffffffff1673ffffffffffffffffffffffffffffffffffffffff16815260200190815260200160002060020160149054906101000a90047f0100000000000000000000000000000000000000000000000000000000000000027effffffffffffffffffffffffffffffffffffffffffffffffffffffffffffff1916141515610f2657600080fd5b6001905092915050565b600060016000838152602001908152602001600020600301549050919050565b606060008060009054906101000a900473ffffffffffffffffffffffffffffffffffffffff1673ffffffffffffffffffffffffffffffffffffffff163373ffffffffffffffffffffffffffffffffffffffff16141515610faf57600080fd5b6005604051908082528060200260200182016040528015610fdf5781602001602082028038833980820191505090505b5091506001826000815181101515610ff357fe5b9060200190602002019060ff16908160ff1681525050600282600181518110151561101a57fe5b9060200190602002019060ff16908160ff1681525050600382600281518110151561104157fe5b9060200190602002019060ff16908160ff1681525050600482600381518110151561106857fe5b9060200190602002019060ff16908160ff1681525050600582600481518110151561108f57fe5b9060200190602002019060ff16908160ff16815250506110ad611695565b604051809103906000f0801580156110c9573d6000803e3d6000fd5b5090508073ffffffffffffffffffffffffffffffffffffffff166326a17cbc836040518263ffffffff167c01000000000000000000000000000000000000000000000000000000000281526004018080602001828103825283818151815260200191508051906020019060200280838360005b8381101561115757808201518184015260208101905061113c565b5050505090500192505050600060405180830381600087803b15801561117c57600080fd5b505af1158015611190573d6000803e3d6000fd5b505050506080604051908101604052808481526020018581526020018273ffffffffffffffffffffffffffffffffffffffff16815260200160008152506001600087815260200190815260200160002060008201518160000190805190602001906111fc929190611615565b506020820151816001019080519060200190611219929190611615565b5060408201518160020160006101000a81548173ffffffffffffffffffffffffffffffffffffffff021916908373ffffffffffffffffffffffffffffffffffffffff160217905550606082015181600301559050505050505050565b6000809054906101000a900473ffffffffffffffffffffffffffffffffffffffff1673ffffffffffffffffffffffffffffffffffffffff163373ffffffffffffffffffffffffffffffffffffffff161415156112d057600080fd5b60017f0100000000000000000000000000000000000000000000000000000000000000027effffffffffffffffffffffffffffffffffffffffffffffffffffffffffffff19166001600086815260200190815260200160002060040160008573ffffffffffffffffffffffffffffffffffffffff1673ffffffffffffffffffffffffffffffffffffffff16815260200190815260200160002060020160149054906101000a90047f0100000000000000000000000000000000000000000000000000000000000000027effffffffffffffffffffffffffffffffffffffffffffffffffffffffffffff19161415156113c757600080fd5b6001600085815260200190815260200160002060040160008473ffffffffffffffffffffffffffffffffffffffff1673ffffffffffffffffffffffffffffffffffffffff16815260200190815260200160002060020160009054906101000a900473ffffffffffffffffffffffffffffffffffffffff1673ffffffffffffffffffffffffffffffffffffffff1663a08c0bca83836040518363ffffffff167c0100000000000000000000000000000000000000000000000000000000028152600401808360ff1660ff1681526020018215151515815260200192505050600060405180830381600087803b1580156114be57600080fd5b505af11580156114d2573d6000803e3d6000fd5b5050505050505050565b6000813073ffffffffffffffffffffffffffffffffffffffff16311015151561150457600080fd5b8160016000858152602001908152602001600020600301540390508060016000858152602001908152602001600020600301819055508373ffffffffffffffffffffffffffffffffffffffff166108fc839081150290604051600060405180830381858888f19350505050158015611580573d6000803e3d6000fd5b5050505050565b60003411151561159657600080fd5b34600160008381526020019081526020016000206003016000828254019250508190555050565b50805460018160011615610100020316600290046000825580601f106115e35750611602565b601f01602090049060005260206000209081019061160191906116a5565b5b50565b60405161025d806116cb83390190565b828054600181600116156101000203166002900490600052602060002090601f016020900481019282601f1061165657805160ff1916838001178555611684565b82800160010185558215611684579182015b82811115611683578251825591602001919060010190611668565b5b50905061169191906116a5565b5090565b60405161025d8061192883390190565b6116c791905b808211156116c35760008160009055506001016116ab565b5090565b905600608060405234801561001057600080fd5b5061023d806100206000396000f300608060405260043610610057576000357c0100000000000000000000000000000000000000000000000000000000900463ffffffff1680632797afa21461005c578063567584ff146100a4578063a08c0bca1461010a575b600080fd5b34801561006857600080fd5b5061008a600480360381019080803560ff169060200190929190505050610146565b604051808215151515815260200191505060405180910390f35b3480156100b057600080fd5b5061010860048036038101908080359060200190820180359060200190808060200260200160405190810160405280939291908181526020018383602002808284378201915050505050509192919290505050610175565b005b34801561011657600080fd5b50610144600480360381019080803560ff1690602001909291908035151590602001909291905050506101dd565b005b60008060008360ff1660ff16815260200190815260200160002060009054906101000a900460ff169050919050565b60008090505b81518110156101d9576001600080848481518110151561019757fe5b9060200190602002015160ff1660ff16815260200190815260200160002060006101000a81548160ff021916908315150217905550808060010191505061017b565b5050565b806000808460ff1660ff16815260200190815260200160002060006101000a81548160ff02191690831515021790555050505600a165627a7a72305820674b50da588cd280cf22653bc105bd0a30e7dac627226b0854bb122c94ff2c6b0029608060405234801561001057600080fd5b5061023d806100206000396000f300608060405260043610610057576000357c0100000000000000000000000000000000000000000000000000000000900463ffffffff16806326a17cbc1461005c5780636e026642146100c257806370a3b2ae1461010a575b600080fd5b34801561006857600080fd5b506100c060048036038101908080359060200190820180359060200190808060200260200160405190810160405280939291908181526020018383602002808284378201915050505050509192919290505050610146565b005b3480156100ce57600080fd5b506100f0600480360381019080803560ff1690602001909291905050506101ae565b604051808215151515815260200191505060405180910390f35b34801561011657600080fd5b50610144600480360381019080803560ff1690602001909291908035151590602001909291905050506101dd565b005b60008090505b81518110156101aa576001600080848481518110151561016857fe5b9060200190602002015160ff1660ff16815260200190815260200160002060006101000a81548160ff021916908315150217905550808060010191505061014c565b5050565b60008060008360ff1660ff16815260200190815260200160002060009054906101000a900460ff169050919050565b806000808460ff1660ff16815260200190815260200160002060006101000a81548160ff02191690831515021790555050505600a165627a7a7230582010a3731e0ba2da3eb4f0b5af3aba2d76580b8e8cd59b791a66306ee663db06620029a165627a7a7230582027d30667ba50f3fdd61628b683a218cac27e53f85572d8e2d9faf377a5042cce0029",
  "source": "pragma solidity ^0.4.21;\r\n\r\nimport \"./Cobertura.sol\";\r\nimport \"./Carencia.sol\";\r\n\r\ncontract Contratos {\r\n\r\n    address owner;\r\n\r\n    struct Beneficiario {\r\n        string nome;\r\n        string carteira;\r\n        Carencia carencia;\r\n        byte flag;\r\n    }\r\n    \r\n    struct Contrato {\r\n        string hashDoDocumento;\r\n        string nomeDoContrato;\r\n        Cobertura cobertura;\r\n        uint saldo;\r\n        mapping(address => Beneficiario) beneficiarios;\r\n    }\r\n    \r\n    mapping(uint => Contrato) contratos;\r\n    \r\n    modifier onlyOwner {\r\n        require(msg.sender == owner);\r\n        _;\r\n    }\r\n    \r\n    constructor() public {\r\n        owner = msg.sender;\r\n    }\r\n    \r\n    function adicionarContrato(uint _codigoContrato, string _nomeContrato, string _hash) onlyOwner public {\r\n\r\n        uint8[] memory agrupadores = new uint8[](5);\r\n        agrupadores[0] = 1;\r\n        agrupadores[1] = 2;\r\n        agrupadores[2] = 3;\r\n        agrupadores[3] = 4;\r\n        agrupadores[4] = 5;\r\n        \r\n        Cobertura cobertura = new Cobertura();\r\n        cobertura.registrarCoberturas(agrupadores);\r\n        \r\n        contratos[_codigoContrato] = Contrato({nomeDoContrato: _nomeContrato, hashDoDocumento: _hash, cobertura: cobertura, saldo: 0});\r\n        \r\n        // emit ContratoCriado(_codigoContrato)\r\n    }\r\n    \r\n    function receberPagamento(uint _codigoContrato) payable public {\r\n        require(msg.value > 0);\r\n        contratos[_codigoContrato].saldo += msg.value;\r\n    }\r\n    \r\n    function pagarAutorizacao(address _autorizador, uint _codigoContrato, uint _valor) public {\r\n        //_valor = _valor * 10**18;\r\n        require(address(this).balance >= _valor);\r\n        \r\n        uint saldo = contratos[_codigoContrato].saldo - _valor;\r\n        contratos[_codigoContrato].saldo = saldo;\r\n        \r\n        _autorizador.transfer(_valor);\r\n    }\r\n    \r\n    function adicionarBeneficiario(uint _codigoContrato, address _wallet, string _nome, string _carteira) public {\r\n        \r\n        require(contratos[_codigoContrato].beneficiarios[_wallet].flag == byte(0));\r\n        \r\n        uint8[] memory agrupadores = new uint8[](5);\r\n        agrupadores[0] = 1;\r\n        agrupadores[1] = 2;\r\n        agrupadores[2] = 3;\r\n        agrupadores[3] = 4;\r\n        agrupadores[4] = 5;\r\n        \r\n        Carencia carencia = new Carencia();\r\n        carencia.registrarCarencias(agrupadores);\r\n        \r\n        contratos[_codigoContrato].beneficiarios[_wallet] = Beneficiario({nome: _nome, carteira: _carteira, carencia: carencia, flag: byte(1)});\r\n    }\r\n    \r\n    function consultarSaldo(uint _codigoContrato) public view returns (uint saldo) {\r\n        saldo = contratos[_codigoContrato].saldo;\r\n    }\r\n    \r\n    function consultarSaldoTotal() public view returns (uint saldo) {\r\n        saldo = address(this).balance;\r\n    }\r\n    \r\n    function verificarBeneficiario(uint _codigoContrato, address _beneficiario) public view returns (bool ok) {\r\n        require(contratos[_codigoContrato].beneficiarios[_beneficiario].flag == byte(1));\r\n        ok = true;\r\n    }\r\n    \r\n    function alterarCarencia(uint _codigoContrato, address _beneficiario, uint8 _agrupador, bool _carencia) onlyOwner public {\r\n        require(contratos[_codigoContrato].beneficiarios[_beneficiario].flag == byte(1));\r\n        contratos[_codigoContrato].beneficiarios[_beneficiario].carencia.alterarCarencia(_agrupador, _carencia);\r\n    }\r\n    \r\n    function removerBeneficiario(uint _codigoContrato, address _beneficiario) onlyOwner public {\r\n        delete contratos[_codigoContrato].beneficiarios[_beneficiario];\r\n    }\r\n    \r\n    function adicionarCobertura(uint _codigoContrato, uint8 _agrupador) onlyOwner public {\r\n        contratos[_codigoContrato].cobertura.alterarCobertura(_agrupador, true);\r\n    }\r\n    \r\n    function removerCobertura(uint _codigoContrato, uint8 _agrupador) onlyOwner public {\r\n        contratos[_codigoContrato].cobertura.alterarCobertura(_agrupador, false);\r\n    }\r\n    \r\n    function recuperarCobertura(uint _codigoContrato) public view returns (address) {\r\n        return address(contratos[_codigoContrato].cobertura);\r\n    }\r\n    \r\n    function cancelarContrato() onlyOwner public {\r\n        selfdestruct(owner);\r\n    }\r\n}",
  "sourcePath": "C:\\DEVBC\\OperadoraBlockchain\\solidity\\contracts\\Contrato.sol",
  "compiler": {
    "name": "solc",
    "version": "0.4.23+commit.124ca40d.Emscripten.clang"
  },
  "schemaVersion": "2.0.0",
  "updatedAt": "2018-05-08T03:40:55.075Z"
}