{
  "contractName": "Prestadores",
  "abi": [
    {
      "constant": false,
      "inputs": [
        {
          "name": "_prestador",
          "type": "address"
        }
      ],
      "name": "adicionarPrestador",
      "outputs": [],
      "payable": false,
      "stateMutability": "nonpayable",
      "type": "function"
    },
    {
      "constant": true,
      "inputs": [
        {
          "name": "_prestador",
          "type": "address"
        },
        {
          "name": "_agrupador",
          "type": "uint8"
        }
      ],
      "name": "verificarPrestador",
      "outputs": [
        {
          "name": "ok",
          "type": "bool"
        }
      ],
      "payable": false,
      "stateMutability": "view",
      "type": "function"
    }
  ],
  "bytecode": "0x608060405234801561001057600080fd5b5061096c806100206000396000f30060806040526004361061004c576000357c0100000000000000000000000000000000000000000000000000000000900463ffffffff1680632a0c9d9914610051578063c1a68a23146100b9575b600080fd5b34801561005d57600080fd5b5061009f600480360381019080803573ffffffffffffffffffffffffffffffffffffffff169060200190929190803560ff1690602001909291905050506100fc565b604051808215151515815260200191505060405180910390f35b3480156100c557600080fd5b506100fa600480360381019080803573ffffffffffffffffffffffffffffffffffffffff1690602001909291905050506103c3565b005b6000610106610681565b60008060008673ffffffffffffffffffffffffffffffffffffffff1673ffffffffffffffffffffffffffffffffffffffff1681526020019081526020016000206040805190810160405290816000820160009054906101000a900473ffffffffffffffffffffffffffffffffffffffff1673ffffffffffffffffffffffffffffffffffffffff1673ffffffffffffffffffffffffffffffffffffffff1681526020016000820160149054906101000a90047f0100000000000000000000000000000000000000000000000000000000000000027effffffffffffffffffffffffffffffffffffffffffffffffffffffffffffff19167effffffffffffffffffffffffffffffffffffffffffffffffffffffffffffff1916815250509150816000015173ffffffffffffffffffffffffffffffffffffffff16636e026642856040518263ffffffff167c0100000000000000000000000000000000000000000000000000000000028152600401808260ff1660ff168152602001915050602060405180830381600087803b15801561029c57600080fd5b505af11580156102b0573d6000803e3d6000fd5b505050506040513d60208110156102c657600080fd5b810190808051906020019092919050505090508080156103b9575060017f0100000000000000000000000000000000000000000000000000000000000000027effffffffffffffffffffffffffffffffffffffffffffffffffffffffffffff19166000808773ffffffffffffffffffffffffffffffffffffffff1673ffffffffffffffffffffffffffffffffffffffff16815260200190815260200160002060000160149054906101000a90047f0100000000000000000000000000000000000000000000000000000000000000027effffffffffffffffffffffffffffffffffffffffffffffffffffffffffffff1916145b9250505092915050565b606060006103cf610681565b60056040519080825280602002602001820160405280156103ff5781602001602082028038833980820191505090505b509250600183600081518110151561041357fe5b9060200190602002019060ff16908160ff1681525050600283600181518110151561043a57fe5b9060200190602002019060ff16908160ff16815250506104586106d3565b604051809103906000f080158015610474573d6000803e3d6000fd5b5091508173ffffffffffffffffffffffffffffffffffffffff166326a17cbc846040518263ffffffff167c01000000000000000000000000000000000000000000000000000000000281526004018080602001828103825283818151815260200191508051906020019060200280838360005b838110156105025780820151818401526020810190506104e7565b5050505090500192505050600060405180830381600087803b15801561052757600080fd5b505af115801561053b573d6000803e3d6000fd5b5050505060408051908101604052808373ffffffffffffffffffffffffffffffffffffffff16815260200160017f0100000000000000000000000000000000000000000000000000000000000000027effffffffffffffffffffffffffffffffffffffffffffffffffffffffffffff19168152509050806000808673ffffffffffffffffffffffffffffffffffffffff1673ffffffffffffffffffffffffffffffffffffffff16815260200190815260200160002060008201518160000160006101000a81548173ffffffffffffffffffffffffffffffffffffffff021916908373ffffffffffffffffffffffffffffffffffffffff16021790555060208201518160000160146101000a81548160ff02191690837f01000000000000000000000000000000000000000000000000000000000000009004021790555090505050505050565b6040805190810160405280600073ffffffffffffffffffffffffffffffffffffffff16815260200160007effffffffffffffffffffffffffffffffffffffffffffffffffffffffffffff191681525090565b60405161025d806106e4833901905600608060405234801561001057600080fd5b5061023d806100206000396000f300608060405260043610610057576000357c0100000000000000000000000000000000000000000000000000000000900463ffffffff16806326a17cbc1461005c5780636e026642146100c257806370a3b2ae1461010a575b600080fd5b34801561006857600080fd5b506100c060048036038101908080359060200190820180359060200190808060200260200160405190810160405280939291908181526020018383602002808284378201915050505050509192919290505050610146565b005b3480156100ce57600080fd5b506100f0600480360381019080803560ff1690602001909291905050506101ae565b604051808215151515815260200191505060405180910390f35b34801561011657600080fd5b50610144600480360381019080803560ff1690602001909291908035151590602001909291905050506101dd565b005b60008090505b81518110156101aa576001600080848481518110151561016857fe5b9060200190602002015160ff1660ff16815260200190815260200160002060006101000a81548160ff021916908315150217905550808060010191505061014c565b5050565b60008060008360ff1660ff16815260200190815260200160002060009054906101000a900460ff169050919050565b806000808460ff1660ff16815260200190815260200160002060006101000a81548160ff02191690831515021790555050505600a165627a7a72305820233591183d9bf46aaa5004bb8464ee0179c0ff91b3892f0c040d1ea76736cf290029a165627a7a723058205c877fbcb2f08589f5844dd500e38842cb9f8c93d9b6616709d81849271c38340029",
  "source": "pragma solidity ^0.4.21;\r\n\r\nimport \"./Cobertura.sol\";\r\n\r\ncontract Prestadores {\r\n    \r\n    struct Prestador {\r\n        Cobertura cobertura;\r\n        byte flag;\r\n    }\r\n    \r\n    mapping(address => Prestador) prestadores;\r\n    \r\n    function adicionarPrestador(address _prestador) public {\r\n        \r\n        uint8[] memory agrupadores = new uint8[](5);\r\n        agrupadores[0] = 1;\r\n        agrupadores[1] = 2;\r\n        //agrupadores[2] = 3;\r\n        //agrupadores[3] = 4;\r\n        //agrupadores[4] = 5;\r\n        \r\n        Cobertura cobertura = new Cobertura();\r\n        cobertura.registrarCoberturas(agrupadores);\r\n        \r\n        Prestador memory prestador = Prestador({cobertura: cobertura, flag: byte(1)});\r\n        prestadores[_prestador] = prestador;\r\n    }\r\n    \r\n    function verificarPrestador(address _prestador, uint8 _agrupador) public view returns (bool ok) {\r\n        Prestador memory prestador = prestadores[_prestador];\r\n        bool temCobertura = prestador.cobertura.possuiCobertura(_agrupador);\r\n        ok = temCobertura && prestadores[_prestador].flag == byte(1);\r\n    }\r\n}",
  "sourcePath": "C:\\projetos\\Operadora\\OperadoraBlockchain\\solidity\\contracts\\Prestadores.sol",
  "compiler": {
    "name": "solc",
    "version": "0.4.23+commit.124ca40d.Emscripten.clang"
  },
  "schemaVersion": "2.0.0",
  "updatedAt": "2018-05-09T14:52:45.611Z"
}