{
  "contractName": "Servicos",
  "abi": [
    {
      "constant": false,
      "inputs": [
        {
          "name": "_codigoTUSS",
          "type": "string"
        },
        {
          "name": "_nome",
          "type": "string"
        },
        {
          "name": "_valor",
          "type": "uint256"
        },
        {
          "name": "_agrupador",
          "type": "uint8"
        }
      ],
      "name": "registrarServico",
      "outputs": [],
      "payable": false,
      "stateMutability": "nonpayable",
      "type": "function"
    },
    {
      "constant": true,
      "inputs": [
        {
          "name": "_codigoTUSS",
          "type": "string"
        }
      ],
      "name": "consultarServico",
      "outputs": [
        {
          "name": "valor",
          "type": "uint256"
        },
        {
          "name": "agrupador",
          "type": "uint8"
        }
      ],
      "payable": false,
      "stateMutability": "view",
      "type": "function"
    },
    {
      "constant": true,
      "inputs": [
        {
          "name": "_codigoTUSS",
          "type": "string"
        }
      ],
      "name": "consultarValor",
      "outputs": [
        {
          "name": "valor",
          "type": "uint256"
        }
      ],
      "payable": false,
      "stateMutability": "view",
      "type": "function"
    },
    {
      "constant": true,
      "inputs": [
        {
          "name": "_codigoTUSS",
          "type": "string"
        }
      ],
      "name": "consultarAgrupador",
      "outputs": [
        {
          "name": "agrupador",
          "type": "uint8"
        }
      ],
      "payable": false,
      "stateMutability": "view",
      "type": "function"
    }
  ],
  "bytecode": "0x608060405234801561001057600080fd5b50610686806100206000396000f300608060405260043610610062576000357c0100000000000000000000000000000000000000000000000000000000900463ffffffff1680634c00926c146100675780638451869c146100e4578063e7d1adff14610167578063efbccb531461022d575b600080fd5b34801561007357600080fd5b506100ce600480360381019080803590602001908201803590602001908080601f01602080910402602001604051908101604052809392919081815260200183838082843782019150505050505091929192905050506102b7565b6040518082815260200191505060405180910390f35b3480156100f057600080fd5b5061014b600480360381019080803590602001908201803590602001908080601f016020809104026020016040519081016040528093929190818152602001838380828437820191505050505050919291929050505061032e565b604051808260ff1660ff16815260200191505060405180910390f35b34801561017357600080fd5b5061022b600480360381019080803590602001908201803590602001908080601f0160208091040260200160405190810160405280939291908181526020018383808284378201915050505050509192919290803590602001908201803590602001908080601f016020809104026020016040519081016040528093929190818152602001838380828437820191505050505050919291929080359060200190929190803560ff1690602001909291905050506103b2565b005b34801561023957600080fd5b50610294600480360381019080803590602001908201803590602001908080601f0160208091040260200160405190810160405280939291908181526020018383808284378201915050505050509192919290505050610499565b604051808381526020018260ff1660ff1681526020019250505060405180910390f35b600080826040518082805190602001908083835b6020831015156102f057805182526020820191506020810190506020830392506102cb565b6001836020036101000a0380198251168184511680821785525050505050509050019150509081526020016040518091039020600101549050919050565b600080826040518082805190602001908083835b6020831015156103675780518252602082019150602081019050602083039250610342565b6001836020036101000a038019825116818451168082178552505050505050905001915050908152602001604051809103902060020160009054906101000a900460ff169050919050565b6103ba610590565b6060604051908101604052808581526020018481526020018360ff168152509050806000866040518082805190602001908083835b60208310151561041457805182526020820191506020810190506020830392506103ef565b6001836020036101000a038019825116818451168082178552505050505050905001915050908152602001604051809103902060008201518160000190805190602001906104639291906105b5565b506020820151816001015560408201518160020160006101000a81548160ff021916908360ff1602179055509050505050505050565b6000806000836040518082805190602001908083835b6020831015156104d457805182526020820191506020810190506020830392506104af565b6001836020036101000a0380198251168184511680821785525050505050509050019150509081526020016040518091039020600101546000846040518082805190602001908083835b602083101515610543578051825260208201915060208101905060208303925061051e565b6001836020036101000a038019825116818451168082178552505050505050905001915050908152602001604051809103902060020160009054906101000a900460ff1691509150915091565b6060604051908101604052806060815260200160008152602001600060ff1681525090565b828054600181600116156101000203166002900490600052602060002090601f016020900481019282601f106105f657805160ff1916838001178555610624565b82800160010185558215610624579182015b82811115610623578251825591602001919060010190610608565b5b5090506106319190610635565b5090565b61065791905b8082111561065357600081600090555060010161063b565b5090565b905600a165627a7a72305820e5885ca109c91a1d178724206d59f08f00f08fd1b9b12eb0146007c4df1a4f5f0029",
  "source": "pragma solidity ^0.4.21;\r\n\r\ncontract Servicos {\r\n    \r\n    struct Servico {\r\n        string nome;\r\n        uint valor;\r\n        uint8 agrupador;\r\n    }\r\n    \r\n    mapping(string => Servico) servicos;\r\n    \r\n    function registrarServico(string _codigoTUSS, string _nome, uint _valor, uint8 _agrupador) public {\r\n        Servico memory s = Servico({nome: _nome, valor: _valor, agrupador: _agrupador});\r\n        servicos[_codigoTUSS] = s;\r\n    }\r\n    \r\n    function consultarServico(string _codigoTUSS) public view returns (uint valor, uint8 agrupador) {\r\n        return (servicos[_codigoTUSS].valor, servicos[_codigoTUSS].agrupador);\r\n    }\r\n    \r\n    function consultarValor(string _codigoTUSS) public view returns (uint valor) {\r\n        valor = servicos[_codigoTUSS].valor;\r\n    }\r\n    \r\n    function consultarAgrupador(string _codigoTUSS) public view returns (uint8 agrupador) {\r\n        agrupador = servicos[_codigoTUSS].agrupador;\r\n    }\r\n}",
  "sourcePath": "C:\\DEVBC\\OperadoraBlockchain\\solidity\\contracts\\Servicos.sol",
  "compiler": {
    "name": "solc",
    "version": "0.4.23+commit.124ca40d.Emscripten.clang"
  },
  "schemaVersion": "2.0.0",
  "updatedAt": "2018-05-09T17:27:57.147Z"
}